:020000040800F2
:10000000B0E4002029030008E3590008E54E000889
:10001000E1590008550E00086DA40008000000001A
:10002000000000000000000000000000690200085D
:10003000111B000800000000C5020008DD7900085F
:100040004303000843030008430300084303000878
:100050004303000843030008131B00084303000880
:1000600043030008191B00081F1B00084303000876
:100070005D1700084303000843030008430300081A
:100080004303000843030008430300084303000838
:10009000590E00084303000843030008251B00080D
:1000A0004303000843030008430300084303000818
:1000B000AD7A000843030008430300084303000827
:1000C00043030008430300084303000843030008F8
:1000D0004303000879830008430300083D840008B7
:1000E00043030008430300084303000843030008D8
:1000F00043030008B97A00084303000843030008DB
:1001000043030008430300084303000843030008B7
:1001100043030008430300084303000843030008A7
:100120004303000869170008751700083D1A000806
:100130004303000843030008430300084303000887
:10014000650E00084303000843030008E559000852
:10015000491A0008551A0008611A0008F5840008B9
:100160004303000843030008430300084303000857
:100170004303000843030008430300080000000095
:10018000430300084303000800F002F800F05CF8A5
:100190000AA090E8000C82448344AAF10107DA45E2
:1001A00001D100F051F8AFF2090EBAE80F0013F0D8
:1001B000010F18BFFB1A43F0010318476017010035
:1001C000801701000A444FF0000C10F8013B13F0B7
:1001D000070408BF10F8014B1D1108BF10F8015BA0
:1001E000641E05D010F8016B641E01F8016BF9D193
:1001F00013F0080F1EBF10F8014BAD1C0C1B09D1EA
:100200006D1E58BF01F801CBFAD505E014F8016B5B
:1002100001F8016B6D1EF9D59142D6D370470000ED
:100220000023002400250026103A28BF78C1FBD8FF
:10023000520728BF30C148BF0B6070471FB510F090
:1002400038FC1FBD10B510BD00F003FA1146FFF7D2
:10025000F5FF0DF017FA00F021FA03B4FFF7F2FFF3
:1002600003BC00F025FA00002C4B19680868B0E8C0
:10027000F04F80F30988BFF36F8F4FF0000080F3D9
:10028000118870470000000008480068006880F38B
:1002900008884FF0000080F3148862B661B6BFF39F
:1002A0004F8FBFF36F8F00DF00BF00BF08ED00E08E
:1002B000DFF80C00016841F470010160704700BF75
:1002C00088ED00E0EFF30980BFF36F8F134B1A68DE
:1002D0001EF0100F08BF20ED108A20E9F04F1060CB
:1002E00009B44FF0500080F31188BFF34F8FBFF374
:1002F0006F8F0EF055FF4FF0000080F3118809BC9E
:1003000019680868B0E8F04F1EF0100F08BFB0EC95
:10031000108A80F30988BFF36F8F7047D0020020E6
:10032000EFF30580704700000948804709480047FF
:10033000FEE7FEE7FEE7FEE7FEE7FEE7FEE7FEE795
:10034000FEE7FEE704480549054A064B70470000F2
:100350009D7A000889010008B0A40020B0E40020C4
:10036000B0C40020B0C4002053EA020C00F0698041
:100370002DE9F04B4FF00006002B1FBFB3FA83F5B9
:1003800003FA05F424FA05F65E4012BF1643B2FAEA
:1003900082F502FA05F4C5F120051EBF22FA05FC1C
:1003A00044EA0C04203556EA044C4FEA144418BFC2
:1003B000641C4FF000084FF00009904271EB030CF1
:1003C00039D3002919BFB1FA81F701FA07F6B0FA5B
:1003D00080F700FA07F6C7F120071EBF20FA07FCD6
:1003E00046EA0C062037B6FBF4FCA7EB0507103FE6
:1003F00007F01F0BCBF120060CFA0BFB2CFA06F6CC
:1004000044BFB3460026202FA4BF5E464FF0000B2A
:100410005BEA060C08BF4FF0010B19EB0B09ABFBB5
:10042000027C48EB0608C01B06FB02CC0BFB03CC8E
:1004300071EB0C01C1E70B46024641464846BDE858
:10044000F08B13B54FF000004FF00001AFF30080C8
:10045000BDE81C40704710B5431C02E010F8011BBA
:1004600071B18107FAD14FF0013202C88C1A8C4366
:1004700014EAC211F9D0C01A0A0603D0C01E10BD7A
:10048000C01A10BD0A0401D0801E10BD0902FCD0A4
:10049000401E10BD032A40F2308010F0030C00F023
:1004A000158011F8013BBCF1020F624498BF11F8AE
:1004B00001CB00F8013B38BF11F8013BA2F1040267
:1004C00098BF00F801CB38BF00F8013B11F00303DF
:1004D00000F02580083AC0F0088051F8043B083A43
:1004E00051F804CBA0E80810F5E7121D5CBF51F8E5
:1004F000043B40F8043BAFF30080D20724BF11F85F
:10050000013B11F801CB48BF11F8012B24BF00F8C3
:10051000013B00F801CB48BF00F8012B704710B534
:10052000203AC0F00B80B1E81850203AA0E81850EB
:10053000B1E81850A0E81850BFF4F5AF5FEA027CAC
:1005400024BFB1E81850A0E8185044BF18C918C01B
:10055000BDE810405FEA827C24BF51F8043B40F8BC
:10056000043B08BF7047D20728BF31F8023B48BFA1
:1005700011F8012B28BF20F8023B48BF00F8012BDF
:10058000704702F0FF0343EA032242EA024200F00E
:1005900002B84FF000020429C0F0128010F0030CE2
:1005A00000F01B80CCF1040CBCF1020F18BF00F866
:1005B000012BA8BF20F8022BA1EB0C0100F00DB815
:1005C0005FEAC17C24BF00F8012B00F8012B48BF73
:1005D00000F8012B70474FF0000200B51346944617
:1005E0009646203922BFA0E80C50A0E80C50B1F18B
:1005F0002001BFF4F7AF090728BFA0E80C5048BF9F
:100600000CC05DF804EB890028BF40F8042B08BF3C
:10061000704748BF20F8022B11F0804F18BF00F838
:10062000012B704770477047704710B500F00CF809
:10063000006810BD10B5044600F006F8046010BD57
:100640000048704750A400200048704750A4002084
:1006500070477546FFF7F4FFAE46050069465346FE
:1006600020F00700854618B020B5FFF76BFEBDE807
:1006700020404FF000064FF000074FF000084FF009
:10068000000B21F00701AC46ACE8C009ACE8C0099A
:10069000ACE8C009ACE8C0098D46704710B5044607
:1006A000AFF300802046BDE81040FFF7D6BD000044
:1006B00001491820ABBEFEE72600020009F012BF78
:1006C00009F0A6BF0BF094BBF0EE400AF5EEC00AAD
:1006D000F1EE10FA02DDB0EE600A7047B1EE600A8A
:1006E000FBE70000002803D09FED020A80ED000A1E
:1006F0007047000000000000002803D0B3EE060A97
:1007000080ED000A7047000070B52DED0C8B84B0B1
:1007100006460C4615469FED990AF0EE408A9FED7D
:10072000970AB0EE409A9FED950AF0EE40BA9FED21
:10073000930AF0EE409A9FED910AB0EE40AA0EB1F6
:1007400004B11DB904B0BDEC0C8B70BD8C48FFF733
:10075000C9FF8C48FFF7D0FF8A48D0ED000A9FED13
:100760008A1A60EE810AB0EE600A00F025F9F0EE18
:10077000408A28EEA80AF0EE408A8248D0ED000AAE
:10078000B0EE001A60EE810A9FED7F1A60EE810ADA
:10079000B0EE600A00F010F9B0EE409A29EE090AB6
:1007A000B0EE409ADFED790AB7EE000A00EEA80A33
:1007B000DFED770A00EEC90ADFED760A20EE200AA7
:1007C000754880ED000A6E4890ED000ADFED730A6F
:1007D00080EE201AB7EE000A31EE000A20EE000A81
:1007E0006D48D0ED000A80EE801A6D4880ED001A49
:1007F00094ED000AB5EEC00AF1EE10FA0DD194EDB9
:10080000010AB5EEC00AF1EE10FA06D194ED020A23
:10081000B5EEC00AF1EE10FA46D09FED580AB0EEE0
:10082000408A0020019002900390D4ED000A60EE0F
:10083000A00A94ED011AD4ED011A41EE210A94EDBB
:10084000021AD4ED021A41EE210AB0EE600A00F05D
:10085000A9F8B0EE408A94ED000A20EE080A8DED6A
:10086000010A94ED010A20EE080A8DED020A94EDCA
:10087000020A20EE080A8DED030ADDED010AF1EE11
:10088000600AB0EE600AFFF719FFF0EE409A9DEDA6
:10089000031AF0EE410A9DED021AB0EE410AFFF78D
:1008A0000FFFB0EE40AA07E09FED340AF0EE409A49
:1008B0009FED320AB0EE40AA95ED000AB5EEC00AEF
:1008C000F1EE10FA0DD195ED010AB5EEC00AF1EE88
:1008D00010FA06D195ED020AB5EEC00AF1EE10FA53
:1008E0003CD0B0EE690A00F067F8B0EE408AB0EE96
:1008F000690AFFF7E7FEB0EE40DAB0EE4A0A00F010
:100900005BF8F0EE40AAB0EE4A0AFFF7DBFEB0EE6D
:1009100040BA28EE2A0AD5ED010A20EE200AD5EDCC
:10092000000A0DEE200A68EE0B0A95ED021A00EEA1
:10093000810AB0EE40CA95ED010A20EE0B0AD5ED12
:10094000020A0AEEE00AF0EE40CAF0EE6C0AB0EEDF
:100950004C0AFFF7B5FEF0EE40BA03E09FED070A40
:10096000F0EE40BAB0EE4A1AF0EE690AB0EE6B0A49
:1009700030460BF0EDF800BFE4E600000000000098
:10098000DC030020E003002035FA8E3CC1BFAD3B04
:100990009DF8C5362F7C1C41E4030020506CC24AF0
:1009A000E803002010B50AF0F0FDB7EE001AC1EE22
:1009B000000AB0EE600A10BD0BF05CBA2DE9F04100
:1009C0002DED028B9AB00546B0EE408A0E461746D2
:1009D0009846002017901890199014901590169032
:1009E0004DB146B13FB1B8F1000F04D0B5EEC08AA9
:1009F000F1EE10FA05D100201AB0BDEC028BBDE873
:100A0000F08196ED000A8DED170A96ED010A8DED45
:100A1000180A96ED020A8DED190A97ED000A8DED80
:100A2000140A97ED010A8DED150A97ED020A8DED76
:100A3000160A17AA14A928460AF0ACFE402104A8F9
:100A4000FFF7C9FD00200090019002900390002460
:100A500017A904A80EF0B6F800BF30E004A800EB18
:100A6000041090ED000AD5ED000A20EE200A04A83B
:100A700000EB0410D0ED010A95ED011A00EE810A99
:100A800004A800EB0410D0ED020A95ED021A00EE66
:100A9000810A04A800EB0410D0ED030A95ED031AB7
:100AA00000EE810A20EE080AF0EE000A80EE201A1D
:100AB000684600EB840080ED001A601CC4B2042C70
:100AC000CCDB002410E005EB840090ED000A6846C2
:100AD00000EB8400D0ED000A30EE200A05EB840024
:100AE00080ED000A601CC4B2042CECDB28460DF03B
:100AF00079FB012080E7000001221021014801F06C
:100B0000CFBF00000000024000221021014801F088
:100B1000C7BF0000000002407047000001221146DC
:100B2000014801F0BDBF0000000402400022012185
:100B3000014801F0B5BF00000004024030B5437821
:100B400004781B021BB2234300EE103A1B4CB8EE94
:100B5000C00AD4ED000A20EE200A81ED000AC37815
:100B600085781B021BB22B4300EE103AD4ED000A2D
:100B7000B8EEC00A20EE200A81ED010A437904791B
:100B80001B021BB2234300EE103AB8EEC00A20EE5F
:100B9000200ADFED0B0A81ED020A017AC37909040C
:100BA000807941EA0321014300EE101AB8EE400AB1
:100BB00020EE200A82ED000A30BD0000FC0100207A
:100BC00000401C4270470CF0D1BD0CF093BA0000FD
:100BD00010B542780378120212B21A4300EE102ABE
:100BE000124BB8EEC00AD3ED010A20EE200A81EDC7
:100BF000000AC2788478120212B2224300EE102A50
:100C0000D3ED010AB8EEC00A20EE200A81ED010AF8
:100C100042790079120212B2024300EE102AB8EEB5
:100C2000C00A20EE200A81ED020A10BDFC0100205E
:100C300010B5FFF771FFFFF7C5FF0BF0EFF908B133
:100C4000802402E00BF056F904460BF0B5FB10B11E
:100C500044F0400010BD0BF041FB204310BD0000EC
:100C60002DE9FC410746002016460D4600900190F4
:100C7000FFF74AFF922000F0BDF8062269461220D5
:100C800000F09AF8FFF738FF9DF801009DF800107A
:100C9000000200B2084300EE100A464CB8EEC00A4B
:100CA000D4ED000A20EE200A85ED000A9DF803002D
:100CB0009DF80210000200B2084300EE100AD4EDC5
:100CC000000AB8EEC00A20EE200A85ED010A9DF860
:100CD00005009DF80410000200B2084300EE100A5F
:100CE000B8EEC00A20EE200A85ED020AFFF71EFFCB
:100CF00008226946002000F05FF8FFF70FFF9DF81B
:100D000000000F2830D19DF803009DF8021000026A
:100D100000B2084300EE100AD4ED010AB8EEC00A92
:100D200020EE200A87ED000A9DF805009DF80410CA
:100D3000000200B2084300EE100AD4ED010AB8EE3A
:100D4000C00A20EE200A87ED010A9DF807009DF8F1
:100D50000610000200B2084300EE100AB8EEC00A06
:100D600020EE200A87ED020AFFF7CEFEA22000F057
:100D700041F802226946222000F01EF8FFF7BCFE6F
:100D80009DF800009DF80110C00040EA5110B0F538
:100D9000806F01DBA0F5006000EE100AB4EE001ACF
:100DA000F8EEC00AB3EE070A00EE810A86ED000AEB
:100DB000BDE8FC81FC01002070B514460D4640F0F2
:100DC000800000F017F806E0552000F013F8641ECC
:100DD00005F8010BE4B2002CF6D170BD10B50C463D
:100DE00040F0800000F006F8552000F003F8207075
:100DF00010BD000001B582B04FF47A70009001235D
:100E000001AA02A9024803F0F5F89DF804000EBDFE
:100E1000DC20002002784078D20042EA5010B0F581
:100E2000806F01DBA0F5006000EE100AB4EE001A3E
:100E3000F8EEC00AB3EE070A00EE810A81ED000A5F
:100E4000704710B50C46FFF7D5FF2046BDE81040AF
:100E5000FFF7D0BFFEE70000014801F00CB800002A
:100E600038200020014801F006B800006020002072
:100E70003EB5114C069D20600020A060E060082077
:100E80002061080A8DF800008DF80110100A8DF815
:100E90000200180A8DF804008DF80530280A8DF834
:100EA00006008DF803208DF8075002AB6A462146F4
:100EB000024800F077FE3EBDB816002060200020FA
:100EC00038B50E4B4FF4207208241A6000229A6045
:100ED000C3E9032443420A48494203701B0A437092
:100EE0008170090AC170027142718271C271024639
:100EF0006B460249034800F055FE38BD88160020B5
:100F00009D010020382000200020704700207047FD
:100F100010B500220449054807F050FD0449034874
:100F200007F03EFD002010BDC8390020C02500207C
:100F3000C831002010B50146034807F031FD0248D2
:100F400007F0FEFC002010BDC025002000207047E7
:100F500010B50246FF20054B04E000BF12F8014B1C
:100F60004440185D491EF9D210BD0000000D010873
:100F700030B50C4605000BD0022C09D9611EFFF7D5
:100F8000E7FF291911F8011C884201D1012030BD69
:100F9000002030BD10B502004FF6FF700BD0064B9D
:100FA000491E08D312F8014B4440E4B233F8144010
:100FB00084EA1020F4E710BD000E010830B50C469D
:100FC000050011D0022C0FD9A11EFFF7E3FF29194C
:100FD000C2B211F8023C9A4206D111F8011CB1EBE1
:100FE000102F01D1012030BD002030BD2DED048B2C
:100FF0004FF4FA600DF060FF9FED760A764C84EDB9
:10100000050A0CF055F9A0600CF056F920600CF0C0
:10101000CFF960600CF054F9DFED708AF0EE680AE9
:101020009FED6F8AE0606F4AB0EE480A0021A4F598
:10103000227004F049FEF0EE680AB0EE480A694AF0
:101040000021A4F5107004F03FFEF0EE680A9FED59
:10105000660A644A00210C32A4F5FC7004F034FEE8
:10106000F3EE040A9FED610A5E4A00211832A4F5EE
:10107000D87004F029FEDFED5E0A9FED5E9A594AB2
:101080000021B0EE490A2432A4F5B47004F01CFE2D
:10109000544AF0EE680AB0EE490A30320021A4F555
:1010A000907004F011FEF0EE480ADFED538A4D4ACD
:1010B0000021B0EE680A3C32A4F1D80004F004FE2E
:1010C000484AF0EE480AB0EE680A48320021A4F11E
:1010D000900004F0F9FDDFED490A424AB0EE480AFB
:1010E00054320021A4F1480004F0EEFDDFF8108135
:1010F0009FED448ADFED448A3A4D444FA4F1D8066F
:10110000B5F10C050BF036FCB8F8000000EE100A43
:10111000F8EE400A80EE880AD4ED160A30EE600A36
:101120000AF0CCFDF0EE680A0BF0C4FF85ED020A70
:1011300094F85C0008B90BF02FFD94F85C000128CE
:1011400001D10BF041FA94F85C00022801D10BF0B8
:10115000E5FE94F85C00032801D10BF073FE94F8CF
:101160005C00042801D10BF0B9F994F85C00052863
:1011700001D10BF05FFB7878042827D0388A40280B
:1011800024D0A868224900F18240884202D200207F
:10119000A4F8400096ED060A85ED000A96ED070AD0
:1011A00085ED010A94ED1C0ABDEEC00A10EE100A8E
:1011B00094ED1B0A01B2BDEEC00A10EE100A00B297
:1011C000FFF77EFE01200DF077FE9BE740F2262020
:1011D000DEE7000000504343C0070020000000008D
:1011E0000000FA44B80000200000F04200007A43FA
:1011F0000000FA4500007A4600803B46000020428D
:101200002817002083F9A2440AD7A33C54170020D2
:10121000333333004FF4FA600DF04EFE00259FED9E
:10122000390A294638480BF07FFF9FED380A2821FC
:1012300037480BF079FFBAEE040A002135480BF06D
:1012400073FF314E9FED340AD83E344C86ED330A9D
:101250004FF47A7794F85C0003280DD002280BD065
:1012600094ED0A0A2E49B0EEC00A10EE100A884228
:1012700002DD3068401C02E0306808B1401E30607A
:10128000E80736D194ED060A1F480BF06DFF25489C
:10129000B0F90410B0F93000081A0FF01FF89FEDF4
:1012A000221B53EC112B0FF06DF80EF0D1FD00EE68
:1012B000100A17480BF058FF94ED0B0A15480BF075
:1012C00053FF96ED330A0BF039FE0F48104990EDAD
:1012D0004E0A174880ED000A91ED4E0A0D4980ED47
:1012E000010A91ED4E0A80ED020A96ED340A80ED76
:1012F000030A01200DF0E0FD6D1CBD42AADB0025B4
:10130000A8E70000CDCC784110090020CDCCCCBCA2
:101310004C0A0020880B002000801D44C0070020DC
:10132000AE47213FD0160020000000000000E03F43
:101330006C1700202DED028B4FF47A700DF0BCFD80
:1013400003200CF007FA9FED4D8A4D4C4D4EDFF80F
:1013500038914E4D84ED048A03200DF0ADFD707878
:10136000032802D03078012802D1707D012808D0EE
:1013700094ED150AB5EEC00AF1EE10FA78D102200C
:1013800077E094ED0A0A4249B0EEC00A10EE100A66
:10139000884201DD03201FE02868B0F5AF7F16D931
:1013A00003200CF0D7F93B4F02E001200DF084FD43
:1013B00094ED060AB0EEC00A10EE100AB842F4DB53
:1013C00040F6B8300DF078FD00202860C4E73249BF
:1013D000A06B884203DA04200CF0BCF9BCE7D4ED22
:1013E000150AF5EEC00AF1EE10FA2BD194F85C0064
:1013F000032801D0022807D110EE100A274988429D
:1014000002DB9FED270A01E09FED260A002089ED0F
:10141000010A0CF09FF995F8D50001289CD1052010
:101420000CF098F9DFF88080002700BFD5F8D000D5
:10143000404591DD02200DF03FFD7F1CBFB2322FF1
:10144000F4D389E701200CF085F902200CF074F93F
:1014500094ED160A1549B0EEC00A10EE100A0844C1
:1014600013498842B2D200200CF066F974E7FFE716
:1014700003200CF06FF984ED048A6DE700305645C7
:10148000C007002054170020C8050020380800209D
:101490000E8AA73FCDCC4C3E0000A04064B5323E42
:1014A000CEFAB83F87C03840000016437A144EC0C9
:1014B0007A142E001749DFED160A91ED000A10EE9E
:1014C000101AB1F17E5F21D010EE101A124A91422B
:1014D00008DADFED121A80EE211A90ED020A20EEF2
:1014E000010A01E090ED010A006890ED001AF0EEAB
:1014F000C11A71EEA00AF4EEC00AF1EE10FA05DD91
:10150000C0EE201A21EE210A80ED000A704700008B
:1015100000000000980100203333B33E3333B33E64
:101520003D499FED3C0A4989B0EE401AB9B1A1F599
:101530007F42FF3A13D0394B1A8900EE902AF8EE19
:10154000601AD0ED040AF4EEE01AF1EE10FA12D2AD
:10155000052A07D901EE102AF8EE411A04E0D0ED71
:10156000010A44E0F1EE041A81EEA01AD0ED020A5D
:1015700060EE810A3BE000EE901A5A68B8EE602AED
:10158000F6EE080A01EE902A22EE202AF4EEC21AA4
:10159000F1EE10FA25DD02EE101A01EE902AB8EEF7
:1015A000422AF4EEC21AF1EE10FA13D201EE101A2A
:1015B000F8EE411A01EE102A31EEC12A01EE101A9E
:1015C000F8EE411A01EE101AB8EE411A41EE601A17
:1015D00082EE211AD0ED020AD0ED031A41EE810A03
:1015E00005E0D0ED020A90ED031A70EE810A006862
:1015F00090ED001AF0EEC11A31EE800AB4EEE00A66
:10160000F1EE10FA05DDC0EE801A21EE210A80ED20
:10161000000A704700000000A3170020B017002048
:101620001CB540F25232904202DC5242904200DA43
:1016300010463E228DF80020A0228DF801208DF862
:101640000210E0318DF804108DF80500010A8DF8C4
:101650000610084402228DF803208DF807000A23A3
:1016600008226946014803F09BFB1CBD142300209F
:101670007CB5044600786178E2780144A0780244A1
:1016800011442279C9B28A4220D16179A2791144E8
:10169000E279C9B28A4219D10121154E154D0128AE
:1016A00015D0022812D101A8CDE9000100230322A0
:1016B000022130680EF014F9288D6885B4F8050011
:1016C000288505F1280000BF06F057FB7CBD01A866
:1016D000CDE9000100230322012130680EF000F95A
:1016E00028886880B4F8050028800248ECE70000EC
:1016F000380200204019002030B5154B1C68656980
:1017000045F0400565611B68DC6844F01004DC604E
:10171000104B1C68256825F0010525601C682568AC
:10172000ED07F7D11D680C4CAC601C68E0601868D0
:1017300001611968500048601868016841F480210F
:1017400001601868016841F00101016030BD0000CE
:10175000142300204024002004100140014800F020
:10176000D1BE0000A0240020014800F0CBBE000044
:1017700000250020AFF300802DE9F05FA748A84BBB
:10178000A84CC06CA64DA74EA54F0068A449DFF831
:101790009492DFF88CA2DFF88CB2DFF884E2A14AE1
:1017A000483B603418351836303F09F178090AF1A2
:1017B000300A4FF4006C0BF1300BAEF1180E88427A
:1017C00023D99749543926E0A84233D14FF0200855
:1017D0000AE0504535D1E04606E000BF4FF400185E
:1017E00002E000BF4FF0006811EA080F7CD08C497E
:1017F000884253D9904205D0984203D0A04201D0EC
:10180000A8422FD14FF0200C45E08649A8318842EC
:1018100003D983495839096805E08249483188422B
:101820008149F8D949689042D0D09842CED0A042A0
:10183000CCD0C9E7B042CED0B842CCD04845CAD00F
:10184000C7E75845CAD07045C8D0DFF8D88108F13D
:1018500090084045C2D0DFF8C88108F148084045EB
:10186000C0D1BBE7B04216D0B84214D0484512D020
:10187000504510D0584509D0704507D0694990317E
:10188000884203D066494831884202D14FF4001C97
:1018900001E04FF0006C62484C382AE06149A83101
:1018A000884229D9904205D0984203D0A04201D065
:1018B000A84202D14FF0200C19E0B04217D0B84234
:1018C00015D0484513D0504511D0584509D0704522
:1018D00007D054499031884203D051494831884259
:1018E00003D14FF4001C02E095E04FF0006C4C482F
:1018F0005038C0F800C052E04A494831884227D9E0
:10190000904205D0984203D0A04201D0A84202D113
:101910004FF0200C18E0B04216D0B84214D0484521
:1019200012D0504510D0584509D0704507D03D49D8
:101930009031884203D03A494831884202D14FF46D
:10194000001C01E04FF0006C3748C0F80CC026E0E6
:10195000904205D0984203D0A04201D0A84202D1C3
:101960004FF0200C18E0B04216D0B84214D04845D1
:1019700012D0504510D0584509D0704507D029499C
:101980009031884203D026494831884202D14FF431
:10199000001C01E04FF0006C2348C0F808C0234C45
:1019A000207880070CD5207820F002002070207865
:1019B00040F004002070012211461D4801F070F82B
:1019C00060781C4D80070CD5607820F002006070B4
:1019D000607840F00400607001221021284601F078
:1019E0005FF8A07880070CD5A07820F00200A070E6
:1019F000A07840F00400A07001221021284601F0D8
:101A00004FF80BF047FD2078400704D50A480168DD
:101A100041F001010160BDE8F09F0000DC200020E2
:101A2000586402401060024000600240080000203C
:101A30000004024000000240103C0140014800F058
:101A400061BD000094210020014800F05BBD000052
:101A500040240020014800F055BD00006025002012
:101A6000014800F04FBD0000E0230020016818236A
:101A7000CAB2103AB2FBF3F2054B6FF30901032A25
:101A80009B5CC36500D9091D81650846704700004D
:101A9000E00C010810B5014600208B698A6A4FF0FE
:101AA000C07453B1B3F5005F15D072B1012A0CD0E8
:101AB000022A0AD0032A09D104E01AB1012A06D069
:101AC000022A03D1C96AC90100D5012010BDC96A23
:101AD000A142FAD010BD002AF7D0012AF2D0022A82
:101AE000F3D0032AF3D010BD30B50468256825F47F
:101AF00080252560046863608368402B036803D0F9
:101B000099600068C26030BD9A600068C16030BDF5
:101B10007047012000F0B8BE082000F0B5BE1020CC
:101B200000F0B2BE202000F0AFBE72B6FEE70000AB
:101B300008B564200DF0C0F90024104D142640F2C1
:101B400055184FF47A7700BF94FBF6F006FB10406F
:101B500058B9287B1E23C0F380000090B5F90620F9
:101B6000B5F908104046FFF783F901200DF0A4F9FC
:101B7000641CBC42E8DB0024E6E70000A317002059
:101B800090F82020012A07D0022A05D0416A41F4AA
:101B90008021416201207047006842690A43426126
:101BA00000207047F0B590F820500468A468012D1B
:101BB00005D0022D03D0416A41F480215DE014F08C
:101BC000406F01D1E50055D5C4F30164022C03D95F
:101BD000416A41F4000150E00125A5401D608D6877
:101BE0004FF4C0739DB1CE6835434E6845EAC605D3
:101BF000066803EB0417F5514FF4C275076805EB4F
:101C000004150E697E51097D012905D009E00E8871
:101C1000CD6845EA4655EBE701684E5946F48076B3
:101C20004E511179D579567941EA056195792D049E
:101C300045EA062529434FF4C676056806EB0416E7
:101C4000A9511178D57841EA0561957852782D042B
:101C500045EA022211434FF4C475026805EB0415EE
:101C60005151006803EB0411425842F00102425006
:101C70000020F0BD416A41F4001141620120F0BD35
:101C800010B590F82020012A07D0022A05D0416A19
:101C900041F480214162012010BD3B48D0F8002270
:101CA00042F00102C0F80022D0F8002222F47C5257
:101CB000C0F80022D0F800224B6A42EA0322C0F8A2
:101CC00000220A7D02F01F0301229A40D0F81C3244
:101CD0009343C0F81C32CB69B3B9D0F80C329343AC
:101CE000C0F80C328C894B6864F31F434C6900EBDD
:101CF000C404C4F840320C890B6864F31F434C6978
:101D000000EBC404C4F84432CB69012B16D1D0F8DF
:101D10000C321343C0F80C320C884B6864F31F4339
:101D20004C6900EBC404C4F840320C89CB6864F3FE
:101D30001F434C6900EBC404C4F844328B69002B88
:101D4000D0F804320ED01343C0F804320B69002BD4
:101D5000D0F8143208D01343C0F81432096A0129AC
:101D600004D008E09343EFE79343F5E7D0F81C1263
:101D70001143C0F81C12D0F8001221F00101C0F884
:101D80000012002010BD000000640040704730B514
:101D900090F82040012C05D0022C03D0416A41F478
:101DA00080215DE00468002955D02469A40754D03F
:101DB0004FF4D874056804EB01142D5915F004058F
:101DC000956005682D594ED0ED08556005682C5971
:101DD00004F00204D4604FF4DA74056804EB0114D3
:101DE0002D5905F00F05156105682D59C5F3072517
:101DF000956105682C59240C54614FF4DC72046819
:101E000002EB0112A4581C700468A458240A5C70E8
:101E10000468A458240C9C700468A258120EDA704E
:101E20004FF4DE72046802EB0112A4581C710468BE
:101E3000A458240A5C710468A458240C9C7104689A
:101E4000A258120EDA71006881B1016941F02001D7
:101E50000161002030BDE468A8E7416A41F4001147
:101E60004162012030BD6D0D1560AFE7C16841F0E2
:101E70002001C160EDE72DE9F05F05460068002410
:101E80004669D0F804908768D0F80CB0D0F810A05C
:101E9000D0F81880F10748D0F90714D001218160EB
:101EA000B80703D5284600F0A6FA0CE0780702D55B
:101EB0004FF4006407E0380702D54FF4805402E085
:101EC000284600F097FAF80516D529684FF4807077
:101ED0008860B80503D5284600F08FFA0CE0780535
:101EE00002D544F4005407E0380502D544F4804498
:101EF00002E0284600F080FAF80316D529684FF46E
:101F000080308860B80303D5284600F078FA0CE0EA
:101F1000780302D544F4004407E0380302D544F4C2
:101F2000803402E0284600F069FA300707D55FEAFE
:101F3000CB6004D52968102044F40074C860700791
:101F40004FF0080707D55FEA0B7004D52868C76013
:101F5000284600F099F9B00706D52868C0688007C0
:101F600002D0284600F092F9700607D55FEACA60F1
:101F700004D52968102044F480640861B00607D5B0
:101F80005FEA0A7004D528680761284600F002FA63
:101F9000F00606D528680069800702D0284600F0C0
:101FA000FAF9B00308D55FEAC96005D529681020A1
:101FB0004860284600F0F0F9F00307D55FEA0970A1
:101FC00004D528684760284600F01AFA300446D540
:101FD0005FEA497040D5F00504D55FEAC87001D0CA
:101FE00044F00104B00504D55FEA887001D544F0DF
:101FF0000204700504D55FEA487001D544F004047A
:10200000300529D518F0700F26D008F07000402850
:1020100015D006DC102809D020280AD0302816D187
:102020000AE050280ED0602811D10EE044F00804D8
:102030000DE044F010040AE044F0200407E044F00E
:10204000400404E044F0800401E044F48074286813
:10205000816921F070018161296804204860002CA9
:1020600005D0686A204368622846FFF78FFEBDE806
:10207000F09F70B5040003D094F8200010B104E084
:10208000012070BD204600F081F82068016841F011
:102090000101016000F00AFD0546052604E000F09C
:1020A00005FD401B0A2811D820684068C007F6D0FB
:1020B0002068016821F00201016000F0F7FC05468C
:1020C0000BE000F0F3FC401B0A2806D9606A40F4DC
:1020D0000030606284F82060D2E7206840688007A2
:1020E000EFD4207E0128206801683DD021F08001D6
:1020F0000160607E01282068016838D021F040012D
:102100000160A07E01282068016833D021F0200101
:102110000160E07E0128206801682ED041F01001A6
:102120000160207F01282068016829D021F0080182
:102130000160607F01282068016824D021F004013B
:102140000160D4E902010843D4E9041211430843B1
:102150006168491E08432168C8610020606201204F
:1021600084F82000002070BD41F08001C0E741F0FC
:102170004001C5E741F02001CAE721F01001CFE797
:1021800041F00801D4E741F00401D9E7F0B587B088
:10219000044614216846FEF71EFA364B3648DFF82F
:1021A000D0E01968D4F800C0334A03250226092775
:1021B00010300024491CF44522D11960012907D1AF
:1021C000016841F000710160006800F00070059046
:1021D000106840F0080010601068CDE9005600F06B
:1021E0000800CDE9047069462448CDE9024500F0B5
:1021F00057FB00220521142000F0ECFD142032E0F2
:10220000DFF87CE0F44530D1D0F800C04CF0806CB1
:10221000C0F800C0D0F800C001290CF0806CCDF8E7
:1022200014C0196007D1016841F0007101600068B5
:1022300000F000700590106840F002001060106817
:1022400002AB00F0020005906020CDE9000683E8B3
:10225000B00069460B4800F023FB00220521402016
:1022600000F0B8FD402000F0A7FD07B0F0BD000071
:10227000006400405002002030380240000C024050
:1022800000680040000402407047000010B58AB0AA
:1022900004466B4603AA0021FFF779FD39488442C2
:1022A00024D10398A0F58071413901D001291DD1B5
:1022B0003549A0F24110C0B2087000EB400101EBBB
:1022C000C002324800EB820130F822300B81BDF8A9
:1022D000063020F82230BDF8040040424880BDF8A6
:1022E0000200404288809DF801008871284884429D
:1022F0001BD10398A0F58070513828D0AF2816D094
:10230000B52819D12148583001880181BDF8001045
:1023100049BA0180BDF8021049BA4180BDF80410E5
:1023200049BA81809DF8061081710AB010BD174826
:10233000694684300AF044FE0398B0F5A87F03D0C4
:10234000A0F580715139F0D10AF052FEEDE70E4848
:102350009DF800101A3001709DF8011041709DF831
:10236000021081709DF80310C1709DF80410017176
:102370009DF8051041719DF8061081719DF80710B8
:10238000C171E1E7382000209C010020D016002018
:1023900060200020704770477047000070B5044609
:1023A00090F82000012804D0606A40F400206062A8
:1023B00018E0022084F820002068016821F0010163
:1023C000016000F073FB05460EE000BF00F06EFBFD
:1023D000401B0A2808D9606A40F40030606205207A
:1023E00084F82000012070BD20684068C007EDD14E
:1023F000606270BD704770477047704770477047A4
:10240000704710B5040002D0607910B106E00120D9
:1024100010BD00202071204600F004F801206071FA
:10242000002010BD08B500680649884208D106485A
:10243000016841F480510160006800F48050009010
:1024400008BD000000300240303802402DE9F04164
:102450000446876D00F02AFB064694F835000025F7
:10246000022806D08020606584F834500120BDE841
:10247000F0812068016821F016010160206841693F
:1024800021F080014161206C08B9A06C20B1206866
:10249000016821F0080101602068016821F0010154
:1024A00001600CE000F002FB801B052807D920200A
:1024B0006065032084F8350084F83450D7E720683D
:1024C0000068C007EED194F85C103F208840B860E7
:1024D000012084F8350084F834500020C7E790F8D4
:1024E0003510022903D08021416501207047052164
:1024F00080F835100068016821F0010101600020BA
:10250000704700002DE9F84304464FF00009CDF86C
:10251000009063484FF41651A56D0068B0FBF1F7C9
:102520002E6894F85C10082000FA01F131420FD0B7
:1025300021680A6852070BD50A6822F004020A6073
:1025400094F85C108840A860606D40F00100606500
:1025500094F85C104FF0010808FA01F0304208D0FE
:1025600021684969090604D5A860606D40F0020041
:10257000606594F85C1004208840304208D02168DF
:102580000968890704D5A860606D40F004006065A3
:1025900094F85C1010208840304218D021680968F7
:1025A000090714D5A86020680168490304D50068AC
:1025B000000308D5A16C07E00168C90503D40168D0
:1025C00021F008010160216C09B12046884794F888
:1025D0005C1020208840304231D021680968C9064B
:1025E0002DD5A86094F8350005282068016806D02C
:1025F000490347D5006800031DD4616C1CE021F03D
:10260000160101602068416921F080014161206C60
:1026100008B9A06C20B12068016821F008010160B0
:1026200094F85C103F208840A86084F8358084F8D6
:102630003490216D1FE0E16B09B120468847606D41
:1026400000282BD0606DC00714D0052084F8350019
:102650002068016821F0010101600098401C009091
:10266000B84203D820680068C007F6D184F83580E6
:1026700084F83490E16C002910D001B02046BDE808
:10268000F04308470168C905D5D4016821F010015D
:10269000016084F8358084F83490CCE7BDE8F88395
:1026A000CC0200202DE9F041044600F0FFF9064677
:1026B0005CB1022084F83500002584F8345020688D
:1026C000016821F0010101600DE00120BDE8F08109
:1026D00000F0ECF9801B052805D920206065032057
:1026E00084F83500F2E720680068C007F0D122685E
:1026F000116820480140D4E901031843D4E90336A6
:102700003343184363691843A3691843E3691843C3
:10271000236A18430843616A042903D1D4E90B13DF
:1027200019430843106020684069666A20F0070179
:1027300030460E43012704280CD1A06A0643E06A04
:1027400040B12046FFF7A6F920B14020606584F82B
:102750003570BAE7206846612046FFF787F994F89C
:102760005C203F2191408160656584F835700020D0
:10277000ACE700003F8010F02DE9F0410446866D83
:1027800090F83400002501280DD0012084F8340091
:1027900094F835700020012F07D084F8340002250A
:1027A0002846BDE8F0810220FBE7022784F8357057
:1027B00060652046FFF798F994F85C103F20884048
:1027C000B0602068016841F016010160206C20B102
:1027D0002068016841F0080101602068016841F04B
:1027E00001010160DCE7000070B5044600F05EF90D
:1027F0000546601C02D004480078044400F056F9F5
:10280000401BA042FAD370BDC002002010B51C4C82
:1028100010281BD0202822D008282BD0012814D122
:1028200060710DF02DF901280FD004F110016069DD
:102830000CF0D0FB2069002807D012494FF08050DF
:102840000860BFF34F8FBFF36F8F10BD607840F00B
:1028500001006070A07840F00100A07003E02078D3
:1028600040F00100207020790028EED0BDE8104033
:102870000AF010BEE07840F00100E07010BD0000EA
:102880000800002004ED00E0044910B50A68024287
:1028900002D00860FFF7BAFF10BD0000143C0140F1
:1028A0002DE9F84FDFF8BCA10022012503264FF0E7
:1028B0000F090AF1040BAAF1040E00BF0B6805FA18
:1028C00002F42340A34270D10F7907F00307012FD0
:1028D00001D0022F16D187684FEA420806FA08FC99
:1028E00027EA0C07D1F80CC00CFA08FC4CEA070CDC
:1028F000C0F808C04768A7430C79C4F3001494409B
:102900003C4344600C79E443A4070AD0C4684FEA0E
:10291000420C06FA0CF7BC438F6807FA0CF7274302
:10292000C7600C7904F00304022C12D1D40800EB28
:10293000840CDCF820405707FF0E09FA07F824EA58
:102940000804D1F8108008FA07F848EA0408CCF81F
:10295000208004684FEA420C06FA0CF7BC430F795A
:1029600007F0030707FA0CF7274307604C6814F4D5
:10297000403F70D03C4C276847F48047276024686C
:1029800022F0030704F480440094384C07EB040C55
:10299000DCF8084897074FEA177809FA08F7BC43AC
:1029A000334FB84202D1002724E054E0314FB842FF
:1029B00001D101271EE0304FB84201D1022719E0B2
:1029C0002E4FB84201D1032714E02D4FB84201D158
:1029D00004270FE02B4FB84201D105270AE02A4F08
:1029E000B84201D1062705E0284FB84201D1072798
:1029F00000E0082707FA08F72743CCF80878DAF848
:102A000000405746D1F804C09C435FEACC2C00D567
:102A10001C433C60DBF800405F46D1F804C09C4397
:102A20005FEA8C2C00D51C433C60DEF80040774602
:102A3000D1F804C09C435FEA8C3C00D51C433C6049
:102A4000084F083F3C68D1F804C09C435FEACC3C87
:102A500000D51C433C60521C102AFFF42FAFBDE888
:102A6000F88F0000083C014044380240003001402B
:102A7000000002400004024000080240000C024036
:102A8000001002400014024000180240001C0240E6
:102A9000426921EA02030A4043EA02418161704728
:102AA0000AB1816170470904FBE7000001488068B2
:102AB00070470000C002002070B5040025D094F8D3
:102AC0003D00002520B984F83C50204600F0B8F8BD
:102AD000242084F83D002068016821F00101016094
:102AE0002068016841F4004101602068016821F418
:102AF0000041016000F09AFF4D4A6168914201D89F
:102B00004C4900E04C49884201D2012070BD4B493C
:102B10002368B0FBF1F15E6826F03F060E435E606D
:102B20006368934206D94FF4967359434FF47A730E
:102B3000B1FBF3F12368491C1E6A26F03F063143BE
:102B400019626168914210D84900401EB0FBF1F251
:102B5000521CC2F30B02042A01D2042022E0B0FB73
:102B6000F1F0401CC0F30B001CE0A268F2B301EBD3
:102B7000C10303EB0116431EB3FBF6F35B1C43F4E6
:102B800080431B0549D092B301EBC10202EB011156
:102B9000401EB0FBF1F0401CC0F30B0040F480403D
:102BA00040F400402168CA694CF6FF739A43104311
:102BB000C861D4E9071001432068026822F0C0020E
:102BC00011430160D4E9030101432068826848F29F
:102BD000FF339A4311438160D4E90501084321681A
:102BE000CA6822F0FF021043C86001E00EE016E060
:102BF0002068016841F0010101602564202084F80B
:102C00003D00256384F83E50002070BD01EB410675
:102C1000431EB3FBF6F35B1CB3E70120C2E701EBF5
:102C20004101401EB0FBF1F0401CC0F30B00B7E7C0
:102C3000A086010080841E0000093D0040420F0074
:102C4000F0B587B0044614216846FDF7C4FC1A4964
:102C5000206888422DD11948016841F004010160C3
:102C6000016801F004010591016841F00101016072
:102C70000068122400F0010005904FF40070012557
:102C8000032604278DE8F10069460D48FFF708FE8A
:102C900028028DE8F10069460A48FFF701FE07485F
:102CA0001030016841F400010160006800F4000088
:102CB000059007B0F0BD0000005C004030380240D5
:102CC0000008024000000240024881680278114476
:102CD00081607047C00200200B4810B5016841F4C4
:102CE00000710160016841F480610160016841F494
:102CF00080710160032000F08DF80F2000F006F8CD
:102D000000F03EF8002010BD003C024010B5014626
:102D100088B000221C2000F05DF81C2000F04CF868
:102D200014480024016841F001010160006805A910
:102D300000F001000690684600F052FE00F076FEBA
:102D40000D494000B0FBF1F10C484FF08042491EA4
:102D5000026040F2E732C0E90324C0E9011401F047
:102D6000AFFA10B1012008B010BD044801F010FB0B
:102D7000F9E700004038024040420F00C8410020FF
:102D80000C4882B0016841F480410160006800F4A1
:102D9000804000900748001F016841F080510160A9
:102DA0000068002200F0805000900F21901E02B0B9
:102DB00000F010B844380240002809DB00F01F0280
:102DC000012191404009800000F1E020C0F800118D
:102DD00070470000F0B40E4B1B680C46C3F302238F
:102DE000C3F10705042D00D90425191D072901D2B7
:102DF000002300E0DB1E012606FA05F1491E2140F2
:102E000099409E40761E16403143F0BC07F05ABBF5
:102E10000CED00E0064900F0070208684FF6FF03DA
:102E2000184040EA0220034A10430860704700003F
:102E30000CED00E00000FA057047006841620020D8
:102E40007047F0B50368586A39B19C6A4FF48276CE
:102E500000EB144400204D1E0AE040EA0240986254
:102E60000FE006EB8007DF59401C04EB1744C0B2AB
:102E7000A842F6D344EA02404FF4807202EB81018B
:102E800058500020F0BDD0F8080506F07DB901EBE0
:102E9000C10200EB8202D0F80805D26C06F09EB8A1
:102EA00001EBC10200EB8202D0F80805D2F88C22B7
:102EB00006F002B9D0F8080506F068B90A0601F074
:102EC0000F0101EBC10100EB810101D53C3101E0B3
:102ED00001F51F71006807F011B970B504460B06C3
:102EE00001F00F0000EBC00104EB81014FF0010283
:102EF0004FF0000503D581F83D203C3103E081F817
:102F00007D5201F51F71087094F8BC04012808D0A7
:102F100084F8BC24206806F0ABFD84F8BC54002083
:102F200070BD022070BD70B5044601F00F006268EC
:102F3000904201D9012070BD0B0601F00F0101EB99
:102F4000C10104EB81014FF001024FF0000503D5F0
:102F500081F83D203C3103E081F87D5201F51F717D
:102F60008D70087094F8BC04012808D084F8BC2443
:102F7000206806F079FF84F8BC54002070BD022060
:102F800070BD01F00F0101EBC10100EB8100D0F831
:102F90009C0270472DE9F04104460F0601F00F0036
:102FA00000EBC00104EB81014FF001064FF000057A
:102FB00003D581F83D603C3103E081F87D5201F595
:102FC0001F710870CA600B714A7802B10881022B28
:102FD00000D14D7194F8BC04012809D084F8BC6478
:102FE000206806F09DFC284684F8BC54BDE8F081BA
:102FF0000220FBE770B50C4601F00F0505EBC5019B
:1030000000EB8101C1F89432C1F88C220023C1F891
:103010009C3281F87D3281F87C52036901F51F7181
:10302000012B00D14A612207027C006803D006F020
:1030300073FF002070BD06F05DFEFAE770B5044630
:103040000D4601F00F006168884201D9012070BD72
:1030500029064FF000064FF0010207D500EBC00132
:1030600004EB810181F83D203C3107E005EBC5010F
:1030700004EB810181F87D6201F51F718A7008708F
:1030800094F8BC04012807D084F8BC24206806F01A
:1030900017FF280702D007E0022070BD217C04F250
:1030A000C442206806F0B4FE84F8BC64002070BD01
:1030B00070B50C4601F00F0505EBC50100EB810171
:1030C0004B65CA640023CB65012381F83D3001F8CC
:1030D0003C5F0369012B00D14A612207027C006832
:1030E00003D006F019FF002070BD06F003FEFAE7DA
:1030F0002DE9FC5F05680446284607F0A0F8002883
:103100007DD1206807F0C7F8002878D0D5F80808E6
:10311000C0F30D20C4F8FC04206807F0BCF8800759
:1031200004D52068416901F002014161206807F07F
:10313000B2F8C10604F2C440009034D52068816919
:1031400021F0100181612F6A07F00F0000EBC00031
:1031500004EB8006C7F3434006F51F76022802D031
:10316000062811D01AE047F6F070074216D0C7F3D0
:103170000A1217462846316907F091F83069384439
:103180003061306A384408E008222846009907F088
:1031900086F8306AC7F30A110844306220688169F2
:1031A00041F010018161206807F075F800034FF0CD
:1031B000080B4FF0000A4FF001097CD5002620686B
:1031C00007F048F8074674E0F80770D0F1B22068BD
:1031D00007F059F88046C00707D005EB4611C1F843
:1031E000089B3146204602F003FC5FEA087024D5B4
:1031F00005EB4611C1F808BB2068016C00E025E230
:1032000000EB46100191D0F8082BFC4B994205D9F0
:10321000110403D54FF40041C0F8081B204600F00C
:1032200005FBF6490198884207D92069012804D195
:1032300020680121009A06F0EBFD5FEAC86004D522
:1032400005EB46111020C1F8080B5FEA88701DD508
:103250006869000605D5D5F8040840F48061C5F812
:10326000041806EBC60004EB800090F87F1200F50E
:103270001F70012905D180F803A0F1B2204600F0AB
:10328000EBF905EB46110220C1F8080B5FEA8860F4
:1032900004D505EB46102021C0F8081B5FEA8840E2
:1032A00005D505EB46104FF40051C0F8081B7F0808
:1032B000761C002F88D1206806F0EDFF40036FD503
:1032C000206806F0C0FF0746002667E0F80763D0D5
:1032D000F1B2206806F0C5FF8046C00723D006F093
:1032E0000F0209FA02F0D5F834288243C5F83428D1
:1032F00005EB4610C0F80899206901280FD106EBAC
:10330000C60004EB8000D0E912211144C16436B933
:10331000606D20B920680121009A06F079FDF1B2B4
:103320002046FFF7B4FD5FEA087003D505EB4611B0
:10333000C1F808B95FEAC86004D505EB4611102052
:10334000C1F808095FEA486004D505EB4610402142
:10335000C0F808195FEA887017D53146284606F08C
:1033600041FF06EBC60004EB800090F83F103C30B4
:10337000012905D180F803A0F1B2204600F068F9D8
:1033800005EB46110220C1F808095FEA086003D581
:103390003146204602F092FB7F08761C002F95D123
:1033A000206806F078FF002811DAD5F8040820F02C
:1033B0000101C5F8041894F8F40401282BD0204624
:1033C00000F018FA2068416901F00041416120686D
:1033D00006F061FF00050BD5D5F80808C00702D03C
:1033E000204600F04BFA2068416901F40061416118
:1033F000206806F050FFC00466D5D5F8040820F018
:103400000100C5F804081021206806F0EBFE002139
:103410004FF67F321FE084F8F4A400212046FFF726
:103420000BFDCFE705EB4110C0F80829D0F80039B3
:1034300023F40013C0F80039C0F8082BD0F8003B83
:1034400023F40013C0F8003BD0F8003B43F00063C6
:10345000C0F8003B491C60688842E3D8D5F81C08D6
:1034600040F00111C5F81C18206B002828460DD02B
:10347000D0F8840840F00B01C5F88418D5F844084A
:1034800040F00B012846C5F844180DE0D0F81408A8
:1034900042F22B010843C5F81408D5F8100840F093
:1034A0000B012846C5F81018D0F8000820F4FE617A
:1034B000C5F80018217C2068009A06F0A9FC206855
:1034C000416901F480514161206806F0E4FE800406
:1034D00015D5206806F064FA206806F0A3FEE060C7
:1034E00000F09EFA0146227B206806F037FF204656
:1034F00000F06AF92068416901F4005141612068D7
:1035000006F0C9FE000707D5204600F077F92068CD
:10351000416901F008014161206806F0BCFE000627
:1035200016D5A86920F08000A86101260DE000BF33
:1035300006EBC60004EB800090F87F02012803D15F
:10354000F1B22046FFF7BAFC761C6068B042EFD8B3
:10355000206806F0A0FEC00221D501264F4616E0E5
:1035600005EB4610D0F8001906EBC60004EB80000E
:1035700090F84020012A09D1002907DA80F83F702D
:10358000F0B240F080012046FFF798FC761C60689E
:10359000B042E5D82068416901F48011416120689A
:1035A00006F079FE800234D501204B4629E000BFA9
:1035B00005EB4011D1F8001B00EBC00204EB8206C2
:1035C00096F88022012A1BD1002919DA94F8FC24EC
:1035D00001F4803102F00102914211D186F87F326C
:1035E000A96941F08002AA616969090608D4D5F881
:1035F000040840F40070C5F8040805E00A30544F90
:10360000401C61688142D3D82068416901F40011EF
:103610004161206806F03FFE400007D52046FFF7D5
:1036200032FC2068416901F080414161206806F068
:1036300032FE40070AD520684568680702D5204653
:10364000FFF738FC2068416829434160BDE8FC9FD2
:10365000D0F8080505F0EEBDD0F8080505F0FFBD6F
:103660002DE9F0418AB0040005D094F8BD04266825
:10367000002520B108E001200AB0BDE8F08184F8FF
:10368000BC54204600F05EF8032084F8BD04F06BC3
:10369000C00500D42561206806F026FB04F1100166
:1036A000282288466846FCF73AFF94E80F0006F0A7
:1036B00085F90226C8BB0021206806F00FFE002015
:1036C00001270EE000EBC00104EB810181F83D70A1
:1036D00001F83C0F08810D71CD600D61401CC0B236
:1036E0008D6161688142EDD8002011E000EBC001DE
:1036F00004EB810181F87D5281F87C0281F88052CF
:10370000C1F88852C1F88C52401CC0B2C1F8945222
:1037100061688142EAD8282241466846FCF7FFFEEC
:1037200094E80F0006F026FA10B184F8BD64A2E711
:1037300084F8385084F8BD74206806F00DFA002033
:103740009AE7000010B586B0044614216846FCF7DD
:1037500042FF2068B0F1A04F2FD119480021026824
:1037600042F001020260006800F0010005904FF491
:10377000C05000900220CDE90101032003900A20EF
:10378000049069460F48FFF78BF80D48001D01684B
:1037900041F0800101600A481430016841F4804121
:1037A00001600068002200F480400590052143205C
:1037B000FFF710FB4320FFF7FFFA06B010BD000033
:1037C000303802400000024070B50446C068012550
:1037D00070B1022801D0FEF7A8F92946D4F80805EF
:1037E00005F0AEFDD4F80805BDE8704005F061BDF8
:1037F0000025F2E7D0F8080505F08BBDD0F80805E4
:1038000005F091BD10B5044690F8BC0401280BD01A
:10381000012084F8BC0484F83810206806F08CFD80
:10382000002084F8BC0410BD022010BDD0F808258B
:1038300000F2C441104605F08FBD10B50446006883
:1038400094F8BC14012906D0012184F8BC14A16AA3
:10385000012902D008E0022010BDA169012903D08E
:10386000816B41F480318163206806F096FC20680A
:1038700006F064F9002084F8BC0410BD10B50446BD
:10388000D0F8080505F0ACFD2068D0F8001E41F026
:103890000101C0F8001E206A002804D00248016817
:1038A00041F00601016010BD10ED00E02DE9F04788
:1038B0000E46050065D0DFF81481D8F80000F7B295
:1038C00000F00700B04207D288F80070D8F8000076
:1038D00000F00700B04254D128683D4C810712D552
:1038E000400703D5206840F4E050206028780007A6
:1038F00003D5206840F4604020602068A96820F06B
:10390000F000084320602878C0072DD0304968684F
:103910000839012812D0022813D0032811D00968D1
:10392000890700292DDA216821F003010143216074
:10393000FFF7BCF8814641F2883A0EE00968890336
:10394000EFE709688901ECE7FFF7B0F8A0EB0901A0
:10395000514502D90320BDE8F0872068696800F06E
:103960000C00B0EB810FEFD1D8F80010404601F009
:103970000701B14207D90770006800F00700B042A4
:1039800001D00120E7E72878400705D52068E968DD
:1039900020F4E050084320602878000706D520680E
:1039A000296920F4604040EAC100206000F05EF820
:1039B0002168084AC1F30311515CC84006490860F8
:1039C00006480068FFF7A2F90020C4E7003C024067
:1039D00008380240E80C0108CC020020C402002094
:1039E0000F2202600C4A136803F00303436013685C
:1039F00003F0F0038360136803F4E053C3601268BC
:103A00004FF4E05303EAD20202610448006800F078
:103A1000070008607047000008380240003C024080
:103A20000148006870470000CC02002004480549A6
:103A300000680968044AC1F38221515CC84070479C
:103A4000CC02002008380240F80C0108044805495F
:103A500000680968044AC1F34231515CC8407047AC
:103A6000CC02002008380240F80C0108154810B5B7
:103A7000006810F00C02144813D01449042A0FD027
:103A8000082A0ED10F4C241F2268236802F03F023F
:103A90005B0207D52068C0F38810A0FB010106E097
:103AA000084610BD2168C1F38811A1FB0001002365
:103AB000FCF75AFC2168C1F30141491C4900B0FBE5
:103AC000F1F010BD083802400024F400001BB700DC
:103AD0002DE9F84F04006ED02078DFF84C93C00732
:103AE000A9F104054AD009F104000168C1F381017C
:103AF000012908D00068C0F3810002280AD1D9F852
:103B00000000400206D52868800337D56068002889
:103B1000E1D033E06068B0F5803F10D0B0F5A02F61
:103B2000286810D020F480302860286820F4802095
:103B300028606068A8B1FEF7B9FF06460DE0286866
:103B400040F48030F4E740F480202860F7E700BFBD
:103B5000FEF7ACFF801B642873D828688003F7D574
:103B60000CE0FEF7A3FF064605E000BFFEF79EFF50
:103B7000801B6428F0D828688003F7D42078DFF809
:103B8000AC8280074FF0000A3ED5A748001D0168AF
:103B900011F00C0F08D00068C0F3810002280BD18F
:103BA000D9F80000400207D42868800716D5E068DD
:103BB000012800D112E033E1E068B8B10120C8F873
:103BC0000000FEF773FF064605E000BFFEF76EFF3C
:103BD000801B0228C0D828688007F7D5286821698B
:103BE00020F0F80040EAC10028600DE0C8F800A00D
:103BF000FEF75CFF064604E0FEF758FF801B022834
:103C00001FD828688007F7D42078000722D5864F70
:103C100087486169703771B101210160FEF746FF85
:103C2000064604E0FEF742FF801B022809D83868E8
:103C30008007F7D50EE0C0F800A0FEF737FF064674
:103C400005E082E0FEF732FF801B02287DD838684D
:103C50008007F7D42078400768D5DFF8CCB100277B
:103C60000BF13C0BDBF80000C0000BD4DBF80010BC
:103C700041F08051CBF80010DBF80000012700F084
:103C8000805000906B4E3068C00510D4306840F40E
:103C900080703060FEF70AFF009005E0FEF706FF37
:103CA0000099401A022850D83068C005F6D55E4EFB
:103CB000A0686C3601280FD00528306810D020F09D
:103CC00001003060306820F004003060A068B8B1B6
:103CD000FEF7ECFE00900FE0306840F00100F4E7E2
:103CE00040F004003060F7E7FEF7E0FE0099411A6B
:103CF00041F28830814266D830688007F4D50EE002
:103D0000FEF7D4FE009007E0FEF7D0FE0099411ABE
:103D100041F28830814256D830688007F4D42FB100
:103D2000DBF8001021F08051CBF80010A069C8B377
:103D30003D49091D0968C1F3810102294AD00228C1
:103D4000504607D0C8F8600000E03CE0FEF7AEFE49
:103D500004463BE04746C8F86000FEF7A7FE06466B
:103D600005E000BFFEF7A2FE801B02282BD82868C2
:103D70008001F7D4D4E907010843A16A2E4A490813
:103D800002EB0141626A41EA8211084394F82C1067
:103D900040EA0161C9F8001001203866FEF786FE8E
:103DA000044606E03EE000BFFEF780FE001B02284E
:103DB00009D828688001F7D534E000BFFEF776FE09
:103DC000001B022802D90320BDE8F88F2868800173
:103DD000F4D427E00128F7D0D9F80000E26900F414
:103DE000800191421CD1226A00F03F01914217D11B
:103DF00047F6C071626A0140B1EB821F10D1A26A1E
:103E00004FF0FF3300F4403103EB5202B1EB024FAD
:103E100006D194F82C1000F07060B0EB016F01D067
:103E20000120D1E70020CFE70438024000004742DC
:103E3000800E4742007000400000FFFF70B5040094
:103E400009D0606A002540B125616561A56294F8DA
:103E5000510040B10CE0012070BD6068B0F5827F78
:103E6000F4D0E561F2E784F85050204600F044F8C1
:103E7000022084F851002068016821F040010160AF
:103E8000A088218900F4827001F404410843A189CB
:103E900001F400610843217C01F002010843217D07
:103EA00001F001010843218B01F400710843217FD7
:103EB00001F03801084394F8201001F08001084314
:103EC000218D01F40051084321680860A069042194
:103ED00001EA104094F8241001F010010843216811
:103EE00048602068C16921F40061C16165650120F5
:103EF00084F85100002070BD2DE9F04387B00646DC
:103F000014216846FCF767FB34493068884261D168
:103F100033480025016841F480510160006800F4D5
:103F2000805005902E481438016841F0020101606C
:103F3000016801F002010591016841F00101016091
:103F40000068022400F001000590182001274FF0BE
:103F500003084FF005098DE8910369462148FEF7F3
:103F60009FFC80208DE8910369461F48FEF798FC6E
:103F70001F4C1E484FF0C0672060C4E901754FF424
:103F80008068C4E9035865617812A561C4E90750E7
:103F900020466562FEF786FB08B1FDF7C6FDF464B6
:103FA000A663134C114860341830E4E8020740203F
:103FB000A4E82101C00244F81459A561C4E90750DE
:103FC0000B4865626030FEF76DFB08B1FDF7ADFD93
:103FD000B464A66307B0BDE8F08300000030014080
:103FE00044380240000402400000024040640240A5
:103FF000342100202DE9F84F044690F850000027A6
:104000000A9E1D4692468B464FF0010901280ED0AC
:10401000012084F85000FEF749FD804694F85100D5
:10402000616801280CD0B1F5827F07D102E002203F
:10403000BDE8F88FA16809B9042801D00227C2E0C1
:10404000BBF1000F27D0BAF1000F24D01DB394F8B4
:104050005100042802D0052084F85100002060653A
:10406000C4F838A0E587A587C4F830B0E586A586F2
:104070002064606420680168490603D4016841F047
:1040800040010160E068B0F5006F606805D0E8B3FA
:10409000012D46D07FE0012795E008B1012D39D1EF
:1040A000206B21680088C860206B801C2063E08E34
:1040B000401EE0862EE02068816889070FD5E18EDA
:1040C00069B1B9F1010F0AD1216B0988C160206B78
:1040D000801C2063E08E401EE0864FF000092068BF
:1040E0008168C9070CD0E18F51B1C068A16B08800D
:1040F000A06B801CA063E08F401EE0874FF0010999
:10410000FEF7D4FCA0EB0800B04200E009E001D3C8
:10411000701C50D1E08E0028CDD1E08F0028CAD18C
:104120003FE0206B216800780873206B401C2063FF
:10413000E08E401EE0862EE02068816889070FD55A
:10414000E18E69B1B9F1010F0AD1216B09780173D0
:10415000206B401C2063E08E401EE0864FF000097B
:1041600020688168C9070CD0E18F51B1C068A16B8C
:104170000870A06B401CA063E08F401EE0874FF0EA
:104180000109FEF793FCA0EB0800B04202D3701CBB
:1041900001D010E07EB1E08E0028CDD1E08F002864
:1041A000CAD142463146204603F092F928B1012790
:1041B0002020606507E0032705E0A06818B92068A3
:1041C000C16880680090012084F85100002084F8C4
:1041D000500038462CE77047704710B590F83C20E7
:1041E000012A22D0012280F83C20CA688C6822F47F
:1041F000407222434C6822F4806222430C6822F40D
:10420000006222430C6922F4805222434C6922F45A
:1042100000522243C969002322F480420A43016804
:104220004A6480F83C30002010BD022010BD000020
:1042300070B590F83C20012A32D0012480F83C402F
:10424000022280F83D2003685A689D6822F07006BB
:104250000A6832435A60134B02689A4214D0B2F192
:10426000804F11D0104B9A420ED0104B9A420BD077
:104270000F4B9A4208D00F4B9A4205D00E4B9A42F0
:1042800002D00E4B9A4204D1496825F080031943AD
:10429000916080F83D40002180F83C10084670BDD8
:1042A000022070BD000001400004004000080040F2
:1042B000000C004000040140004001400018004094
:1042C00010B5040003D094F83D0010B107E00120C0
:1042D00010BD002084F83C00204600F01FF80220AA
:1042E00084F83D00211D206803F0ECFB012084F8D8
:1042F000460084F83E0084F83F0084F8400084F8CB
:10430000410084F8420084F8430084F8440084F8B3
:10431000450084F83D00002010BD000008B5184A93
:1043200001681848914207D1016841F0020101601B
:10433000006800F002000BE0134A91420AD11148D4
:10434000001D016841F400310160006800F4003094
:10435000009008BD0D4A9142FBD1016841F4807183
:1043600001600068002200F48070009005212D207B
:10437000FEF730FDBDE808402D20FEF71DBD000012
:10438000000400404038024000440140002000404A
:1043900090F83D10012901D001207047022180F8DA
:1043A0003D100168CA6842F00102CA600068114904
:1043B000884214D0B0F1804F11D00F4988420ED0FE
:1043C0000E4988420BD00E49884208D00D498842D8
:1043D00005D00D49884202D00C49884204D1816839
:1043E00001F00701062903D0016841F001010160D5
:1043F0000020704700000140000400400008004019
:10440000000C004000040140004001400018004042
:1044100070B5044690F83C000025012817D001260D
:1044200084F83C60022084F83D002068826822F015
:10443000770222F47F4282600868502838D00DDC71
:1044400020284FD005DC90B3102811D14AE002207B
:1044500070BD302846D040280AD13BE060282FD0DC
:1044600070280DD0B0F5805F03D0B0F5005F12D09A
:10447000012584F83D60002084F83C00284670BD8A
:10448000CB68D1E90121206803F080FB20688168B6
:1044900041F0770109E0CB68D1E90121206803F000
:1044A00075FB2068816841F480418160E1E719E093
:1044B000CA684968206803F03DFC5021206806E086
:1044C000CA684968206803F046FC6021206803F050
:1044D00067FBCEE7CA684968206803F02BFC4021DF
:1044E0002068F4E7226801461046F0E7704770B58F
:1044F0000446006801694FF00005C943890715D4D7
:10450000C168C943890711D4E91E016101202077E0
:10451000206880698007204602D0FFF7E7FF04E0AB
:1045200000F0F0F8204600F095F925772068016941
:10453000C943490717D4C168C943490713D46FF069
:1045400004010161022020772068806910F4407F17
:10455000204602D0FFF7CAFF04E000F0D3F820465F
:1045600000F078F9257720680169C943090716D456
:10457000C168C943090712D46FF008010161042022
:1045800020772068C0698007204602D0FFF7AEFF81
:1045900004E000F0B7F8204600F05CF925772068C9
:1045A0000169C943C90617D4C168C943C90613D4F0
:1045B0006FF010010161082020772068C06910F4B5
:1045C000407F204602D0FFF791FF04E000F09AF808
:1045D000204600F03FF9257720680169C943C907E3
:1045E00008D1C168C943C90704D1891E01612046A9
:1045F00000F031F920680169C943090609D4C1688E
:10460000C943090605D46FF0800101612046FFF718
:10461000E2FD20680169C943490609D4C168C9435C
:10462000490605D46FF040010161204600F01AF9F7
:1046300020680169C94389060BD4C168C94389064A
:1046400007D46FF0200101612046BDE87040FFF7FC
:10465000C3BD70BD30B587B0044614216846FBF772
:10466000BAFF2468204D2148022201230321AC42D5
:1046700010D1046844F010040460006800F01000D9
:1046800005904FF428508DE80D00CDE903136946DD
:10469000174811E0174DAC4212D1046844F00404ED
:1046A0000460006800F004000590A8158DE80D0076
:1046B000CDE9031269461048FEF7F2F807B030BDA5
:1046C0000E4DAC42FAD1046844F020040460006846
:1046D000CDE9023100F0200005904020CDE9000234
:1046E000049169460648E7E700000140303802407F
:1046F0000010024000040040000802400044014055
:1047000000140240704770B5044690F83C00002643
:104710000D4601280FD0012084F83C006AB1042A1C
:104720001DD0082A2FD00C2A3FD00126002084F863
:104730003C00304670BD022070BD206803F038FA9E
:104740002068816941F0080181612068816921F058
:1047500004018161206881692A69114311E02068A0
:1047600003F056FA2068816941F400618161206894
:10477000816921F480618161206881692A6941EA47
:1047800002218161D2E7206803F078FA2068C169CC
:1047900041F00801C1612068C16921F00401C161D3
:1047A0002068C1692A69114311E0206803F09AFA70
:1047B0002068C16941F40061C1612068C16921F4C8
:1047C0008061C1612068C1692A6941EA0221C16131
:1047D000ACE710B5040003D094F83D0010B107E039
:1047E000012010BD002084F83C00204600F01EF897
:1047F000022084F83D00211D206803F063F90120A8
:1048000084F8460084F83E0084F83F0084F84000B5
:1048100084F8410084F8420084F8430084F844009E
:1048200084F8450084F83D00002010BD08B50068FC
:104830000649884208D10648016841F0010101603B
:10484000006800F00100009008BD00000000014079
:104850004438024070470068B0F1804F01D1FEF744
:1048600033BA70477047704770470000F8B5016869
:1048700004460868CA684B6910F00F0F4FF0000536
:1048800059D003F0010602F49077374365D0C10791
:1048900005D0D10503D5216C41F001012164410708
:1048A00005D5D90703D0216C41F0020121648107AD
:1048B00005D5D90703D0216C41F00401216401071B
:1048C00007D502F02001314303D0216C41F00801EB
:1048D0002164216C00293AD0800604D5900602D5C7
:1048E000204603F004FB20684069216CC0F380106F
:1048F000090700D460B3204603F0C4FA2068406979
:10490000400621D52068143050E8001F21F04001F6
:1049100040E80012002AF5D1A06BA8B16C490165EE
:10492000A06BFDF7DCFD002811D0A06B016D01B07C
:10493000BDE8F040084783060FD593060DD5204605
:10494000BDE8F84003F0D3BA2046FFF78DFFF8BD6D
:104950002046FFF789FF2564F8BD266B2023012E32
:1049600079D1C60677D5D60675D50868486800900F
:104970004869400640D5A16B086840680004000CF7
:10498000EAD0A28D8242E7D9E085C869B0F5807F80
:104990002DD020680C3050E8001F21F4807140E8D1
:1049A0000012002AF5D12068143050E8001F21F0D1
:1049B000010140E80012002AF5D12068143050E8C7
:1049C000001F21F0400140E80012002AF5D184F8D0
:1049D0003E30256320680C3050E8001F21F01001A4
:1049E00040E80012002AF5D1A06BFDF72FFDA08D45
:1049F000E18D401A81B229E0A08DE18D401A81B28B
:104A0000E08D0028A8D00029A6D020680C3050E8FE
:104A1000002F22F4907240E80026002EF5D1206885
:104A2000143050E8002F22F0010240E80026002E4A
:104A3000F5D184F83E30256320680C3050E8002F13
:104A400022F0100240E80023002BF5D12046FFF7AA
:104A50000AFFF8BDFFE705062BD5150629D594F802
:104A60003D002128F5D1A068B0F5805F01D1206913
:104A7000B0B1206A411C2162216800784860E08C56
:104A8000401E0004000CE084E3D12068C16821F0DE
:104A90008001C1602068C16841F04001C160D8E771
:104AA000206A0088C0F308004860206A801C2062E9
:104AB000E5E74006CDD55006CBD5CA68204622F0A2
:104AC0004002CA6084F83D3000F00AFAC1E70000F5
:104AD000DF7D000870B5040004D094F83D00002587
:104AE00010B106E0012070BD84F83C50204600F073
:104AF00023F8242084F83D002068C16821F4005187
:104B0000C160204603F054FA2068016921F4904105
:104B100001612068416921F02A0141612068C16872
:104B200041F40051C1602564202084F83D0084F8E0
:104B30003E00002070BD00002DE9F04F87B0044614
:104B400014216846FBF747FD8948884B1438D4F890
:104B500000C0874A02260321002507154FF00709E8
:104B60004FF0400B4FF0006A9C4561D1136843F051
:104B700010031360126802F010020592026842F0FE
:104B800002020260026802F002020592026842F02C
:104B9000010202600068884600F001000590802054
:104BA000CDE9000602AB694683E820037148FDF7B2
:104BB00077FE3002CDE9000602AB694683E82003A8
:104BC0006D48FDF76DFE6E4E6C48D046C6E9035742
:104BD0007561B56186E801094FF44030C6E90750B8
:104BE00030467562FDF75EFD08B1FCF79EFF666317
:104BF000B463634E6148603630383060C6E9018581
:104C0000C6E9035775614FF40030B561C6E9075036
:104C100030467562FDF746FD08B1FCF786FFA663D6
:104C2000002205212520B463FEF7D4F825203FE0BB
:104C3000DFF850810123C4453FD14D4A121FD2F8FD
:104C400000C04CF4802CC2F800C0126802F480222C
:104C50000592026842F0040202600068CDE9023168
:104C600000F0040005904FF44060CDE90006CDF857
:104C7000109069464448FDF713FE414E4348C03644
:104C80003060C6E901A5C6E903577561B561F561F4
:104C9000356230467562FDF705FD08B1FCF745FF4A
:104CA000A663002205212720B463FEF793F827208E
:104CB000FEF782F807B0BDE8F08FDFF8D480C44576
:104CC000F8D1D2F800C04CF0200CC2F800C0126835
:104CD00002F020020592026842F040020260006881
:104CE000029300F0400005904FF48440CDE90006A7
:104CF0000820CDE9031069462648FDF7D1FD1F487D
:104D0000254E90384FF020683060C6E90185C6E92D
:104D1000035775614FF40030B561C6E9075030465E
:104D20007562FDF7BFFC08B1FCF7FFFEA663B46334
:104D3000194E124860361838C6E903577561B561D7
:104D400086E801094FF44030C6E9075030467562E5
:104D5000FDF7A8FC08B1FCF7E8FE66630022052118
:104D60004720B463FEF736F84720A1E70010014062
:104D7000443802400004024000000240B86402408F
:104D8000E023002000480040000802402860024064
:104D90000014014000180240002500207047000068
:104DA0002DE9F843044690F83D001F4616460D468F
:104DB00020284CD1C5B1BEB194F83C00012846D0A2
:104DC000012084F83C004FF00008C4F84080212006
:104DD00084F83D00FDF76AFEA6848146E684A0685B
:104DE000B0F5805F03D004E00120BDE8F8832069BE
:104DF00028B12E465FF0000584F83C800EE00026C6
:104E0000FAE78021204603F059F9A0B9AEB116F8AF
:104E1000010B21684860E08C401EE084E08C4B462A
:104E20004FF0000200970028EBD14FF040012046E0
:104E300003F044F930B10320D7E735F8020BC0F393
:104E40000800E6E7202084F83D000020CDE702209E
:104E5000CBE7000070B5044690F83D00202836D11D
:104E600091B38AB394F83C00012830D0012084F833
:104E70003C002162A284E28400252564212084F87C
:104E80003D00636B1348D863636B13481864636B0E
:104E90001248D864606B134605652668606B321D46
:104EA000FDF76AFC21686FF04000086084F83C5010
:104EB0002068143050E8001F41F0800140E80012E3
:104EC000002AF5D1002070BDFFE70120FBE702209A
:104ED000F9E70000397E00087B7E0008EF7D0008BE
:104EE00070477047FEE7000008B5072000E0642027
:104EF00008F03CFCFBF79CFE0028F8D18B4AA2F19D
:104F00001004101D9346211D8246FBF7A9FE23467F
:104F1000A3F1400204F16C06A2F10C01A1F10C0016
:104F2000009608F049FADFED820A9FED820A824A74
:104F3000002104F1880000F0C7FEA4F14002A2F1B4
:104F40000C0101F11800FBF7DFFB002008F04AFC20
:104F50000AF050FD794D102168617948C161FEF772
:104F60006DFF08B1FCF7E1FD744908222431A1F17D
:104F7000080002F035FA012028719FED720ADFF86F
:104F8000AC8108F1140888ED050A9FED6F0A88EDE1
:104F9000060A9FED6E0A4FF0FF3988ED070A494671
:104FA000012009F0DBFD0128F9D12878400720D540
:104FB000287820F004002870604851462530FBF71F
:104FC00007FE94ED050AD8ED050A30EE600A84ED7F
:104FD000050A94ED060AD8ED060A30EE600A84ED63
:104FE000060A94ED070AD8ED070A30EE600A84ED50
:104FF000070A687840070AD5687820F004006870CE
:105000004A4A211D1032A2F12A00FBF797FDA87829
:1050100040070CD5A87820F00400A87047485946EE
:105020001A30FBF7F7FE94ED040A08F0B7FA3F4B8D
:105030000096103BA3F14002A2F10C01A1F10C007B
:1050400008F0BAF939488038A0F10C0290ED001A46
:1050500000F10C0182ED001AD1ED000AC0ED000A4A
:105060009FED3B0A00F1240360EE801ADFED390A60
:1050700093ED002A41EE201A9FED371A42EE011AF5
:10508000C1ED001AD0ED011AC2ED011A91ED012A0D
:1050900080ED012A22EE002A01EEA02AD3ED011AAA
:1050A00001EE812A81ED012AD0ED021AC2ED021A29
:1050B00091ED022A0A4680ED022A22EE000A3C30D7
:1050C00001EEA00AD3ED020A0C3300EE810A81ED55
:1050D000020A0C319FED210AFBF770FC134F343F9D
:1050E0003B1D39461A1DA1F1100008F0EDF8D7ED6F
:1050F000000A9FED1B0A07F10C0020EE801ADFED7D
:10510000190AC1EE201AC0ED001A97ED011A21EE1E
:10511000001AC1EE201AC0ED011A97ED021A21EE15
:10512000000A80EE201A80ED021A38E77804002089
:105130000080894500A08C45B80B010808000020BC
:10514000DC20002039598ABA9ECFBD3A8EE8393921
:105150005AF8F63F5D896EBFD5A9183B6F12833AA6
:1051600000003443DB0F4940F0B500230A2430250A
:1051700037261F4611E000BFB4EB107F02D905EBC4
:10518000107C01E006EB107C01F813C001EB430C2E
:1051900000015B1C8CF80170DBB29342ECD3F0BDD4
:1051A000D0ED010A90ED051A70EE811AC0ED021AD9
:1051B000D0ED030A30EE601A90ED060A31EE800A57
:1051C00081EE002A80ED072A22EE022A80ED082ACD
:1051D00081EE802AB0EE600AF7EE000A80ED042A24
:1051E00070EEC20A02EE010A60EEA10A80ED030A27
:1051F000C0ED010A70470000B7EE001A80ED011AF9
:105200009FED061A80ED021A80ED031A80ED041A54
:1052100080ED050AC0ED060A70470000000000009E
:1052200006494FF47A700860054D0C152146284652
:10523000FDF72EFC642009F03FFEF7E73404004040
:10524000001C0240F0EE400AC0ED070A90ED041A7F
:1052500080ED031A90ED050A80ED040AD0ED001AE6
:1052600020EE210AD0ED011A01EE210A90ED021A7A
:1052700000EE810A80ED050A80ED060A704791ED87
:10528000000A80ED000A91ED010A80ED010A91ED1E
:10529000020A80ED020A70470F4810B50D490160FF
:1052A0000321416000214FF410228160C0E9031204
:1052B0004FF400124261017641768176C176017722
:1052C0004177FCF7D6FE002803D0BDE81040FCF77C
:1052D0002CBC10BD00640040382000200F4810B5E1
:1052E0000D4901600321416000214FF410228160CB
:1052F000C0E903124FF400124261017641768176D3
:10530000C17601774177FCF7B4FE002803D0BDE8F1
:105310001040FCF70ABC10BD00680040602000206F
:10532000074910B5054808600846FDF76AF80028E7
:1053300003D0BDE81040FCF7F8BB10BD00300240C0
:1053400054020020254808B5016841F4800101603D
:10535000016801F480010091016841F400110160CD
:105360000068002200F40010009005210C20FDF7D9
:1053700031FD0C20FDF720FD002205213920FDF72D
:1053800029FD3920FDF718FD002205213A20FDF7FF
:1053900021FD3A20FDF710FD002205213B20FDF7FD
:1053A00019FD3B20FDF708FD002205214420FDF7F3
:1053B00011FD4420FDF700FD002205214520FDF7E9
:1053C00009FD4520FDF7F8FC002205214620FDF7E8
:1053D00001FDBDE808404620FDF7EEBC3038024034
:1053E00010B5C0B01C2232496846FBF798F800217E
:1053F000684608F0C8F92F4C2D491C2260611C3109
:1054000007A8FBF78CF8002107A808F0BCF9284989
:10541000A0611C2238310EA8FBF781F800210EA8EC
:1054200008F0B1F92249E0611C22543115A8FBF7BC
:1054300076F8002115A808F0A6F91D4920621C2263
:1054400070311CA8FBF76BF800211CA808F09BF931
:10545000174920601C228C3123A8FBF760F800213B
:1054600023A808F090F9124960601C22A8312AA8EC
:10547000FBF755F800212AA808F085F90C49A0602F
:105480001C22C43131A8FBF74AF8002131A808F0EA
:105490007AF9074920611C22E03138A8FBF73FF870
:1054A000002138A808F06FF9E06040B010BD00009E
:1054B000E40B01082C0200202DE9F04F87B01421E5
:1054C0006846FBF788F86248016841F00201016014
:1054D000016801F002010591016841F0400101609D
:1054E000016801F040010591016841F0010101608E
:1054F000016801F001010591016841F008010160B6
:10550000016801F008010591016841F004010160A2
:10551000016801F004010591016841F0800101601A
:10552000016801F080010591016841F020010160EE
:10553000016801F020010591016841F0100101604E
:105540000068DFF8109100F0100005900122402162
:105550004846FDF7A5FA404F4FF4E0560022314689
:105560003846FDF79DFADFF8F4A0012210215046DD
:10557000FDF796FADFF8E8B0012211465846FDF72C
:105580008FFA01244020CDE90004022569464846EF
:10559000CDE90245FDF784F901AA4FF00308009612
:1055A00082E8300169463846FDF77AF909264FF45A
:1055B00004170096CDE9017469464846FDF770F975
:1055C0001020CDE9000469465046CDE90245FDF7BB
:1055D00067F93020CDE90007694602942148FDF7BC
:1055E0005FF90094694658460194CDE90245FDF7FC
:1055F00057F94FF44040CDE90005CDE9024869462E
:1056000004965846FDF74CF9002205210620FDF7C7
:10561000E1FB0620FDF7D0FB002205210920FDF764
:10562000D9FB0920FDF7C8FB002205210A20FDF760
:10563000D1FB0A20FDF7C0FB002205211720FDF752
:10564000C9FB1720FDF7B8FB07B0BDE8F08F0000DD
:105650003038024000180240001C024000000240A6
:1056600000040240000802400D4810B50B490160DB
:105670000C49416000214FF480428160C0E903126F
:1056800041618161C1610162FDF716FA002803D012
:10569000BDE81040FCF749BA10BD0000005C0040B6
:1056A00088200020801A0600104810B50E490160BD
:1056B0004FF482714160002102228160C0E903122F
:1056C00001224261520282613822C0E9072141620F
:1056D00081620A21C162FEF7B1FB002803D0BDE858
:1056E0001040FCF722BA10BD00300140DC20002041
:1056F00010B588B01C216846FAF76DFF14481349AD
:105700000024C0E9001441F28731C0E9024104617C
:105710008461FEF7D5FD08B1FCF707FA0C48FFF7E6
:1057200058F808B1FCF701FA6020CDE900040294B2
:105730000022694606480494FEF7E5FF08B1FCF72D
:10574000F4F90348FEF786FF08B010BD004401409D
:10575000842200200B4810B50949016053214160A3
:10576000002140F2CF72C0E9021201618161FEF7AF
:10577000A7FD002803D0BDE81040FCF7D6B910BD46
:1057800000200040CC22002010B592B000240F94DD
:105790001C2168461094FAF71EFF202107A8FAF78B
:1057A0001AFF284826490160A721C0E9011444F6E0
:1057B0001F61C0E9031444618461FFF70AF808B16E
:1057C000FCF7B3F90F940FA91E481094FEF730FDB3
:1057D00008B1FCF7AAF96020CDE900040294039413
:1057E000049405940022694616480694FEF78BFF40
:1057F00008B1FCF79AF9042269461248FEF783FFC4
:1058000008B1FCF792F9082269460E48FEF77BFFC3
:1058100008B1FCF78AF90794089409944FF40050F2
:105820000A94CDE90B4007A906480E94FEF7D5FC73
:1058300008B1FCF77AF90348FEF70CFF12B010BD6F
:1058400000000140F421002010B58EB00024079420
:10585000089409940A940B941C2168460C94FAF756
:10586000BAFE1E481C4901605321C0E9011440F2F0
:10587000E731C0E903148461FEF722FD08B1FCF7AB
:1058800054F94FF48050079007A91448FEF7C0FD63
:1058900008B1FCF74AF91148FEF79BFF08B1FCF785
:1058A00044F90B940BA90D480C94FEF7C1FC08B108
:1058B000FCF73BF96020CDE9000402940822694618
:1058C00006480494FEF71FFF08B1FCF72EF90348C1
:1058D000FEF7C0FE0EB010BD000400403C220020C8
:1058E0000C4810B50A4901604FF4E13141600021D4
:1058F00081600C22C160C0E904128161C161FFF7BF
:10590000E9F8002803D0BDE81040FCF70EB910BD3F
:1059100000100140142300200C4810B50A49016012
:105920000B494160002181600C22C160C0E9041272
:105930008161C161FFF7CEF8002803D0BDE81040B7
:10594000FCF7F3B810BD00000048004058230020C9
:10595000A08601000C4810B50A4901604FF4E131FE
:105960004160002181600C22C160C0E904128161A4
:10597000C161FFF7AFF8002803D0BDE81040FCF785
:10598000D4B810BD001401409C23002010B50022A3
:105990000F49104803F0FCFA08B1FCF7C6F80E49AD
:1059A0000C4803F048FD08B1FCF7BFF80B49094863
:1059B00002F0EAFF08B1FCF7B8F8064803F010FE61
:1059C000002803D0BDE81040FCF7AFB810BD0000C0
:1059D0005C020020C0250020A4030020AC020020AF
:1059E000FEE7FEE70148FDF783BB0000BC2A00206C
:1059F0002DE9F04103680D4604461E6C03EB45118A
:105A0000D1F8080BD4F810E04FF400474FF0200C09
:105A100004F2C442BEF1010F09D0DFF898E07645E8
:105A200039D1020432D500BFC1F8087B3FE0224BD8
:105A30005FEA007E04D59E4239D90004F4D436E0F2
:105A40005FEA806E02D5C1F808CB30E010F0280F75
:105A50002DD19E4201D90004E6D405EBC50004EB2C
:105A60008000D1F8101BD0F89832C1F31201591AF6
:105A7000C0F89C1200F51F70ADB983691BB10269B3
:105A8000114401610FE0012120680AE080060AD577
:105A9000C1F808CB07E035B9D4F8940218B9002151
:105AA000184604F0B5F9E9B22046FDF7F9F90020EF
:105AB000BDE8F0810A31544F0A30544F2DE9F84FB8
:105AC0000E4601EBC60100EB810481460568616D5D
:105AD000E06D3C34884202D90120BDE8F88F081AF5
